{
  "transactions": [
    {
      "hash": "0x00081bc360e68aa49e154812af66598a6eca9780e612982dc79fa4cd7683b631",
      "transactionType": "CALL",
      "contractName": null,
      "contractAddress": "0x779877a7b0d9e8603169ddbd7836e478b4624789",
      "function": "transferAndCall(address,uint256,bytes)",
      "arguments": [
        "0x9DdfaCa8183c41ad55329BdeeD9F6A8d53168B1B",
        "4000000000000000000",
        "0x8da6dcbdefd2bfa991b4b939670b45923020800c0a196a981ebbfdb7192d8f69"
      ],
      "transaction": {
        "from": "0x947ca63b7c83c7954dd8d1ebd1c584287449b64c",
        "to": "0x779877a7b0d9e8603169ddbd7836e478b4624789",
        "gas": "0x1c1ff",
        "value": "0x0",
        "input": "0x4000aea00000000000000000000000009ddfaca8183c41ad55329bdeed9f6a8d53168b1b0000000000000000000000000000000000000000000000003782dace9d900000000000000000000000000000000000000000000000000000000000000000006000000000000000000000000000000000000000000000000000000000000000208da6dcbdefd2bfa991b4b939670b45923020800c0a196a981ebbfdb7192d8f69",
        "nonce": "0x1a",
        "chainId": "0xaa36a7"
      },
      "additionalContracts": [],
      "isFixedGasLimit": false
    }
  ],
  "receipts": [
    {
      "status": "0x1",
      "cumulativeGasUsed": "0xbc776e",
      "logs": [
        {
          "address": "0x779877a7b0d9e8603169ddbd7836e478b4624789",
          "topics": [
            "0xddf252ad1be2c89b69c2b068fc378daa952ba7f163c4a11628f55a4df523b3ef",
            "0x000000000000000000000000947ca63b7c83c7954dd8d1ebd1c584287449b64c",
            "0x0000000000000000000000009ddfaca8183c41ad55329bdeed9f6a8d53168b1b"
          ],
          "data": "0x0000000000000000000000000000000000000000000000003782dace9d900000",
          "blockHash": "0xdc20df5647e7234ca7fbf1c12181759d49d3f6a00a4b23df6f2ac52f4b4a7338",
          "blockNumber": "0x8297fa",
          "transactionHash": "0x00081bc360e68aa49e154812af66598a6eca9780e612982dc79fa4cd7683b631",
          "transactionIndex": "0xa8",
          "logIndex": "0xa9",
          "removed": false
        },
        {
          "address": "0x779877a7b0d9e8603169ddbd7836e478b4624789",
          "topics": [
            "0xe19260aff97b920c7df27010903aeb9c8d2be5d310a2c67824cf3f15396e4c16",
            "0x000000000000000000000000947ca63b7c83c7954dd8d1ebd1c584287449b64c",
            "0x0000000000000000000000009ddfaca8183c41ad55329bdeed9f6a8d53168b1b"
          ],
          "data": "0x0000000000000000000000000000000000000000000000003782dace9d900000000000000000000000000000000000000000000000000000000000000000004000000000000000000000000000000000000000000000000000000000000000208da6dcbdefd2bfa991b4b939670b45923020800c0a196a981ebbfdb7192d8f69",
          "blockHash": "0xdc20df5647e7234ca7fbf1c12181759d49d3f6a00a4b23df6f2ac52f4b4a7338",
          "blockNumber": "0x8297fa",
          "transactionHash": "0x00081bc360e68aa49e154812af66598a6eca9780e612982dc79fa4cd7683b631",
          "transactionIndex": "0xa8",
          "logIndex": "0xaa",
          "removed": false
        },
        {
          "address": "0x9ddfaca8183c41ad55329bdeed9f6a8d53168b1b",
          "topics": [
            "0x1ced9348ff549fceab2ac57cd3a9de38edaaab274b725ee82c23e8fc8c4eec7a",
            "0x8da6dcbdefd2bfa991b4b939670b45923020800c0a196a981ebbfdb7192d8f69"
          ],
          "data": "0x00000000000000000000000000000000000000000000000000000000000000000000000000000000000000000000000000000000000000003782dace9d900000",
          "blockHash": "0xdc20df5647e7234ca7fbf1c12181759d49d3f6a00a4b23df6f2ac52f4b4a7338",
          "blockNumber": "0x8297fa",
          "transactionHash": "0x00081bc360e68aa49e154812af66598a6eca9780e612982dc79fa4cd7683b631",
          "transactionIndex": "0xa8",
          "logIndex": "0xab",
          "removed": false
        }
      ],
      "logsBloom": "0x00000004000000000000000000000000000000000020000000000000020000000000000000000000000000000000000000000000000000000000000000000000000000000000000000000008000000000000002000000000000020000020000008000000000000000000000000000000000000000000000000000010000040000000000000000000000000010000800000000020000000000000000000000000000000000000000000000000010000000000001000000000000004000000000000040003000000000000000000000000000000000000000100000000000000000010000000001000800000000000000000000000000000000000000000000000",
      "type": "0x2",
      "transactionHash": "0x00081bc360e68aa49e154812af66598a6eca9780e612982dc79fa4cd7683b631",
      "transactionIndex": "0xa8",
      "blockHash": "0xdc20df5647e7234ca7fbf1c12181759d49d3f6a00a4b23df6f2ac52f4b4a7338",
      "blockNumber": "0x8297fa",
      "gasUsed": "0x133b1",
      "effectiveGasPrice": "0xf424c",
      "from": "0x947ca63b7c83c7954dd8d1ebd1c584287449b64c",
      "to": "0x779877a7b0d9e8603169ddbd7836e478b4624789",
      "contractAddress": null
    }
  ],
  "libraries": [],
  "pending": [],
  "returns": {},
  "timestamp": 1750043820,
  "chain": 11155111,
  "commit": "22a57ef"
}